{
  "_format": "hh-sol-artifact-1",
  "contractName": "Signatures",
  "sourceName": "contracts/Signatures.sol",
  "abi": [
    {
      "inputs": [],
      "stateMutability": "nonpayable",
      "type": "constructor"
    },
    {
      "inputs": [],
      "name": "ECDSAInvalidSignature",
      "type": "error"
    },
    {
      "inputs": [
        {
          "internalType": "uint256",
          "name": "length",
          "type": "uint256"
        }
      ],
      "name": "ECDSAInvalidSignatureLength",
      "type": "error"
    },
    {
      "inputs": [
        {
          "internalType": "bytes32",
          "name": "s",
          "type": "bytes32"
        }
      ],
      "name": "ECDSAInvalidSignatureS",
      "type": "error"
    },
    {
      "inputs": [
        {
          "internalType": "address",
          "name": "owner",
          "type": "address"
        }
      ],
      "name": "OwnableInvalidOwner",
      "type": "error"
    },
    {
      "inputs": [
        {
          "internalType": "address",
          "name": "account",
          "type": "address"
        }
      ],
      "name": "OwnableUnauthorizedAccount",
      "type": "error"
    },
    {
      "anonymous": false,
      "inputs": [
        {
          "indexed": true,
          "internalType": "address",
          "name": "signer",
          "type": "address"
        },
        {
          "indexed": false,
          "internalType": "string",
          "name": "message",
          "type": "string"
        },
        {
          "indexed": false,
          "internalType": "bytes",
          "name": "signature",
          "type": "bytes"
        }
      ],
      "name": "MessageSigned",
      "type": "event"
    },
    {
      "anonymous": false,
      "inputs": [
        {
          "indexed": false,
          "internalType": "bool",
          "name": "open",
          "type": "bool"
        }
      ],
      "name": "OpenToggled",
      "type": "event"
    },
    {
      "anonymous": false,
      "inputs": [
        {
          "indexed": true,
          "internalType": "address",
          "name": "previousOwner",
          "type": "address"
        },
        {
          "indexed": true,
          "internalType": "address",
          "name": "newOwner",
          "type": "address"
        }
      ],
      "name": "OwnershipTransferred",
      "type": "event"
    },
    {
      "inputs": [],
      "name": "open",
      "outputs": [
        {
          "internalType": "bool",
          "name": "",
          "type": "bool"
        }
      ],
      "stateMutability": "view",
      "type": "function"
    },
    {
      "inputs": [],
      "name": "owner",
      "outputs": [
        {
          "internalType": "address",
          "name": "",
          "type": "address"
        }
      ],
      "stateMutability": "view",
      "type": "function"
    },
    {
      "inputs": [
        {
          "internalType": "string",
          "name": "message",
          "type": "string"
        },
        {
          "internalType": "bytes",
          "name": "signature",
          "type": "bytes"
        }
      ],
      "name": "recoverSigner",
      "outputs": [
        {
          "internalType": "address",
          "name": "",
          "type": "address"
        }
      ],
      "stateMutability": "pure",
      "type": "function"
    },
    {
      "inputs": [],
      "name": "renounceOwnership",
      "outputs": [],
      "stateMutability": "nonpayable",
      "type": "function"
    },
    {
      "inputs": [
        {
          "internalType": "bool",
          "name": "_open",
          "type": "bool"
        }
      ],
      "name": "setOpen",
      "outputs": [],
      "stateMutability": "nonpayable",
      "type": "function"
    },
    {
      "inputs": [
        {
          "internalType": "string",
          "name": "message",
          "type": "string"
        },
        {
          "internalType": "bytes",
          "name": "signature",
          "type": "bytes"
        }
      ],
      "name": "storeSignedMessage",
      "outputs": [],
      "stateMutability": "nonpayable",
      "type": "function"
    },
    {
      "inputs": [
        {
          "internalType": "address",
          "name": "newOwner",
          "type": "address"
        }
      ],
      "name": "transferOwnership",
      "outputs": [],
      "stateMutability": "nonpayable",
      "type": "function"
    },
    {
      "inputs": [
        {
          "internalType": "string",
          "name": "message",
          "type": "string"
        },
        {
          "internalType": "bytes",
          "name": "signature",
          "type": "bytes"
        },
        {
          "internalType": "address",
          "name": "expectedSigner",
          "type": "address"
        }
      ],
      "name": "verify",
      "outputs": [
        {
          "internalType": "bool",
          "name": "",
          "type": "bool"
        }
      ],
      "stateMutability": "pure",
      "type": "function"
    }
  ],
  "bytecode": "0x608060405234801561001057600080fd5b50338061003757604051631e4fbdf760e01b81526000600482015260240160405180910390fd5b61004081610053565b506000805460ff60a01b191690556100a3565b600080546001600160a01b038381166001600160a01b0319831681178455604051919092169283917f8be0079c531659141344cd1fd0a4f28419497f9722a3daafe3b4186f6b6457e09190a35050565b610b3c806100b26000396000f3fe608060405234801561001057600080fd5b50600436106100875760003560e01c8063715018a61161005b578063715018a6146101075780638da5cb5b1461010f578063f2fde38b14610120578063fcfff16f1461013357600080fd5b8062fd49841461008c5780633feb7cff146100bc5780635ccd4816146100d15780636fdca5e0146100f4575b600080fd5b61009f61009a3660046108d0565b610147565b6040516001600160a01b0390911681526020015b60405180910390f35b6100cf6100ca3660046108d0565b610207565b005b6100e46100df366004610958565b6103bd565b60405190151581526020016100b3565b6100cf6101023660046109d9565b6103e9565b6100cf610449565b6000546001600160a01b031661009f565b6100cf61012e366004610a02565b61045d565b6000546100e490600160a01b900460ff1681565b60008085858080601f01602080910402602001604051908101604052809392919081815260200183838082843760009201829052508451949550936101909350915061049b9050565b87876040516020016101a493929190610a1d565b6040516020818303038152906040528051906020012090506101fc8186868080601f01602080910402602001604051908101604052809392919081815260200183838082843760009201919091525061052e92505050565b979650505050505050565b600054600160a01b900460ff16610269576000546001600160a01b031633146102695760405162461bcd60e51b815260206004820152600f60248201526e14dd1bdc994e88191a5cd8589b1959608a1b60448201526064015b60405180910390fd5b600084848080601f01602080910402602001604051908101604052809392919081815260200183838082843760009201829052508451949550936102b19350915061049b9050565b86866040516020016102c593929190610a1d565b604051602081830303815290604052805190602001209050600061031f8286868080601f01602080910402602001604051908101604052809392919081815260200183838082843760009201919091525061052e92505050565b90506001600160a01b038116331461036d5760405162461bcd60e51b8152602060048201526011602482015270496e76616c6964207369676e617475726560781b6044820152606401610260565b806001600160a01b03167f5bfd5e55b1a2c34bc691d671ffa08e07dad644fe5b4564a83c4fe2657e32898b888888886040516103ac9493929190610ab3565b60405180910390a250505050505050565b6000816001600160a01b03166103d587878787610147565b6001600160a01b0316149695505050505050565b6103f1610558565b60008054821515600160a01b0260ff60a01b199091161790556040517fe36f717a2d532c72a150544d60ca38f711a30f9409860e3367d03eca9f12f3539061043e90831515815260200190565b60405180910390a150565b610451610558565b61045b6000610585565b565b610465610558565b6001600160a01b03811661048f57604051631e4fbdf760e01b815260006004820152602401610260565b61049881610585565b50565b606060006104a8836105d5565b600101905060008167ffffffffffffffff8111156104c8576104c8610ada565b6040519080825280601f01601f1916602001820160405280156104f2576020820181803683370190505b5090508181016020015b600019016f181899199a1a9b1b9c1cb0b131b232b360811b600a86061a8153600a85049450846104fc57509392505050565b60008060008061053e86866106ae565b92509250925061054e82826106fb565b5090949350505050565b6000546001600160a01b0316331461045b5760405163118cdaa760e01b8152336004820152602401610260565b600080546001600160a01b038381166001600160a01b0319831681178455604051919092169283917f8be0079c531659141344cd1fd0a4f28419497f9722a3daafe3b4186f6b6457e09190a35050565b60008072184f03e93ff9f4daa797ed6e38ed64bf6a1f0160401b83106106145772184f03e93ff9f4daa797ed6e38ed64bf6a1f0160401b830492506040015b6d04ee2d6d415b85acef81000000008310610640576d04ee2d6d415b85acef8100000000830492506020015b662386f26fc10000831061065e57662386f26fc10000830492506010015b6305f5e1008310610676576305f5e100830492506008015b612710831061068a57612710830492506004015b6064831061069c576064830492506002015b600a83106106a8576001015b92915050565b600080600083516041036106e85760208401516040850151606086015160001a6106da888285856107b8565b9550955095505050506106f4565b50508151600091506002905b9250925092565b600082600381111561070f5761070f610af0565b03610718575050565b600182600381111561072c5761072c610af0565b0361074a5760405163f645eedf60e01b815260040160405180910390fd5b600282600381111561075e5761075e610af0565b0361077f5760405163fce698f760e01b815260048101829052602401610260565b600382600381111561079357610793610af0565b036107b4576040516335e2f38360e21b815260048101829052602401610260565b5050565b600080807f7fffffffffffffffffffffffffffffff5d576e7357a4501ddfe92f46681b20a08411156107f3575060009150600390508261087d565b604080516000808252602082018084528a905260ff891692820192909252606081018790526080810186905260019060a0016020604051602081039080840390855afa158015610847573d6000803e3d6000fd5b5050604051601f1901519150506001600160a01b0381166108735750600092506001915082905061087d565b9250600091508190505b9450945094915050565b60008083601f84011261089957600080fd5b50813567ffffffffffffffff8111156108b157600080fd5b6020830191508360208285010111156108c957600080fd5b9250929050565b600080600080604085870312156108e657600080fd5b843567ffffffffffffffff808211156108fe57600080fd5b61090a88838901610887565b9096509450602087013591508082111561092357600080fd5b5061093087828801610887565b95989497509550505050565b80356001600160a01b038116811461095357600080fd5b919050565b60008060008060006060868803121561097057600080fd5b853567ffffffffffffffff8082111561098857600080fd5b61099489838a01610887565b909750955060208801359150808211156109ad57600080fd5b506109ba88828901610887565b90945092506109cd90506040870161093c565b90509295509295909350565b6000602082840312156109eb57600080fd5b813580151581146109fb57600080fd5b9392505050565b600060208284031215610a1457600080fd5b6109fb8261093c565b7f19457468657265756d205369676e6564204d6573736167653a0a00000000000081526000845160005b81811015610a64576020818801810151601a868401015201610a47565b508083019050601a810160008152848682375060009301601a0192835250909392505050565b81835281816020850137506000828201602090810191909152601f909101601f19169091010190565b604081526000610ac7604083018688610a8a565b82810360208401526101fc818587610a8a565b634e487b7160e01b600052604160045260246000fd5b634e487b7160e01b600052602160045260246000fdfea2646970667358221220deac8d6e43b15e14dc0acecfd30449bb0f9e3114a0c36dd33ccde6e7a50315f764736f6c63430008140033",
  "linkReferences": {},
  "deployedLinkReferences": {}
}