{
  "_format": "hh-sol-artifact-1",
  "contractName": "Signatures",
  "sourceName": "contracts/Signatures.sol",
  "abi": [
    {
      "inputs": [],
      "stateMutability": "nonpayable",
      "type": "constructor"
    },
    {
      "inputs": [],
      "name": "ECDSAInvalidSignature",
      "type": "error"
    },
    {
      "inputs": [
        {
          "internalType": "uint256",
          "name": "length",
          "type": "uint256"
        }
      ],
      "name": "ECDSAInvalidSignatureLength",
      "type": "error"
    },
    {
      "inputs": [
        {
          "internalType": "bytes32",
          "name": "s",
          "type": "bytes32"
        }
      ],
      "name": "ECDSAInvalidSignatureS",
      "type": "error"
    },
    {
      "inputs": [
        {
          "internalType": "address",
          "name": "owner",
          "type": "address"
        }
      ],
      "name": "OwnableInvalidOwner",
      "type": "error"
    },
    {
      "inputs": [
        {
          "internalType": "address",
          "name": "account",
          "type": "address"
        }
      ],
      "name": "OwnableUnauthorizedAccount",
      "type": "error"
    },
    {
      "anonymous": false,
      "inputs": [
        {
          "indexed": true,
          "internalType": "uint256",
          "name": "messageId",
          "type": "uint256"
        },
        {
          "indexed": true,
          "internalType": "address",
          "name": "signer",
          "type": "address"
        },
        {
          "indexed": false,
          "internalType": "string",
          "name": "message",
          "type": "string"
        },
        {
          "indexed": false,
          "internalType": "bytes",
          "name": "signature",
          "type": "bytes"
        }
      ],
      "name": "MessageSigned",
      "type": "event"
    },
    {
      "anonymous": false,
      "inputs": [
        {
          "indexed": false,
          "internalType": "bool",
          "name": "open",
          "type": "bool"
        }
      ],
      "name": "OpenToggled",
      "type": "event"
    },
    {
      "anonymous": false,
      "inputs": [
        {
          "indexed": true,
          "internalType": "address",
          "name": "previousOwner",
          "type": "address"
        },
        {
          "indexed": true,
          "internalType": "address",
          "name": "newOwner",
          "type": "address"
        }
      ],
      "name": "OwnershipTransferred",
      "type": "event"
    },
    {
      "anonymous": false,
      "inputs": [
        {
          "indexed": true,
          "internalType": "uint256",
          "name": "messageId",
          "type": "uint256"
        },
        {
          "indexed": true,
          "internalType": "address",
          "name": "voter",
          "type": "address"
        },
        {
          "indexed": false,
          "internalType": "uint256",
          "name": "weight",
          "type": "uint256"
        },
        {
          "indexed": false,
          "internalType": "bool",
          "name": "support",
          "type": "bool"
        }
      ],
      "name": "Voted",
      "type": "event"
    },
    {
      "inputs": [
        {
          "internalType": "uint256",
          "name": "",
          "type": "uint256"
        }
      ],
      "name": "againstVotes",
      "outputs": [
        {
          "internalType": "uint256",
          "name": "",
          "type": "uint256"
        }
      ],
      "stateMutability": "view",
      "type": "function"
    },
    {
      "inputs": [
        {
          "internalType": "uint256",
          "name": "",
          "type": "uint256"
        }
      ],
      "name": "forVotes",
      "outputs": [
        {
          "internalType": "uint256",
          "name": "",
          "type": "uint256"
        }
      ],
      "stateMutability": "view",
      "type": "function"
    },
    {
      "inputs": [
        {
          "internalType": "uint256",
          "name": "",
          "type": "uint256"
        },
        {
          "internalType": "address",
          "name": "",
          "type": "address"
        }
      ],
      "name": "hasVoted",
      "outputs": [
        {
          "internalType": "bool",
          "name": "",
          "type": "bool"
        }
      ],
      "stateMutability": "view",
      "type": "function"
    },
    {
      "inputs": [],
      "name": "messageCount",
      "outputs": [
        {
          "internalType": "uint256",
          "name": "",
          "type": "uint256"
        }
      ],
      "stateMutability": "view",
      "type": "function"
    },
    {
      "inputs": [],
      "name": "open",
      "outputs": [
        {
          "internalType": "bool",
          "name": "",
          "type": "bool"
        }
      ],
      "stateMutability": "view",
      "type": "function"
    },
    {
      "inputs": [],
      "name": "owner",
      "outputs": [
        {
          "internalType": "address",
          "name": "",
          "type": "address"
        }
      ],
      "stateMutability": "view",
      "type": "function"
    },
    {
      "inputs": [
        {
          "internalType": "string",
          "name": "message",
          "type": "string"
        },
        {
          "internalType": "bytes",
          "name": "signature",
          "type": "bytes"
        }
      ],
      "name": "recoverSigner",
      "outputs": [
        {
          "internalType": "address",
          "name": "",
          "type": "address"
        }
      ],
      "stateMutability": "pure",
      "type": "function"
    },
    {
      "inputs": [],
      "name": "renounceOwnership",
      "outputs": [],
      "stateMutability": "nonpayable",
      "type": "function"
    },
    {
      "inputs": [
        {
          "internalType": "bool",
          "name": "_open",
          "type": "bool"
        }
      ],
      "name": "setOpen",
      "outputs": [],
      "stateMutability": "nonpayable",
      "type": "function"
    },
    {
      "inputs": [
        {
          "internalType": "string",
          "name": "message",
          "type": "string"
        },
        {
          "internalType": "bytes",
          "name": "signature",
          "type": "bytes"
        }
      ],
      "name": "storeSignedMessage",
      "outputs": [],
      "stateMutability": "nonpayable",
      "type": "function"
    },
    {
      "inputs": [
        {
          "internalType": "uint256",
          "name": "messageId",
          "type": "uint256"
        }
      ],
      "name": "totalVotes",
      "outputs": [
        {
          "internalType": "uint256",
          "name": "",
          "type": "uint256"
        }
      ],
      "stateMutability": "view",
      "type": "function"
    },
    {
      "inputs": [
        {
          "internalType": "address",
          "name": "newOwner",
          "type": "address"
        }
      ],
      "name": "transferOwnership",
      "outputs": [],
      "stateMutability": "nonpayable",
      "type": "function"
    },
    {
      "inputs": [
        {
          "internalType": "string",
          "name": "message",
          "type": "string"
        },
        {
          "internalType": "bytes",
          "name": "signature",
          "type": "bytes"
        },
        {
          "internalType": "address",
          "name": "expectedSigner",
          "type": "address"
        }
      ],
      "name": "verify",
      "outputs": [
        {
          "internalType": "bool",
          "name": "",
          "type": "bool"
        }
      ],
      "stateMutability": "pure",
      "type": "function"
    },
    {
      "inputs": [
        {
          "internalType": "uint256",
          "name": "messageId",
          "type": "uint256"
        },
        {
          "internalType": "bool",
          "name": "support",
          "type": "bool"
        }
      ],
      "name": "vote",
      "outputs": [],
      "stateMutability": "nonpayable",
      "type": "function"
    }
  ],
  "bytecode": "0x608060405234801561001057600080fd5b50338061003757604051631e4fbdf760e01b81526000600482015260240160405180910390fd5b61004081610053565b506000805460ff60a01b191690556100a3565b600080546001600160a01b038381166001600160a01b0319831681178455604051919092169283917f8be0079c531659141344cd1fd0a4f28419497f9722a3daafe3b4186f6b6457e09190a35050565b610eb2806100b26000396000f3fe608060405234801561001057600080fd5b50600436106100e95760003560e01c80636fdca5e01161008c578063c9d27afe11610066578063c9d27afe146101fa578063e96e22b91461020d578063f2fde38b1461022d578063fcfff16f1461024057600080fd5b80636fdca5e0146101ce578063715018a6146101e15780638da5cb5b146101e957600080fd5b80633feb7cff116100c85780633feb7cff14610148578063438596321461015d5780635ccd48161461019b5780635ebad714146101ae57600080fd5b8062fd4984146100ee57806319e6e1581461011e5780633dbcc8d11461013f575b600080fd5b6101016100fc366004610b88565b610254565b6040516001600160a01b0390911681526020015b60405180910390f35b61013161012c366004610bf4565b6102d6565b604051908152602001610115565b61013160015481565b61015b610156366004610b88565b61034d565b005b61018b61016b366004610c29565b600460209081526000928352604080842090915290825290205460ff1681565b6040519015158152602001610115565b61018b6101a9366004610c55565b6104d9565b6101316101bc366004610bf4565b60036020526000908152604090205481565b61015b6101dc366004610ce6565b610505565b61015b610565565b6000546001600160a01b0316610101565b61015b610208366004610d08565b610579565b61013161021b366004610bf4565b60026020526000908152604090205481565b61015b61023b366004610d2b565b610716565b60005461018b90600160a01b900460ff1681565b60008061026085610754565b868660405160200161027493929190610d46565b6040516020818303038152906040528051906020012090506102cc8185858080601f0160208091040260200160405190810160405280939291908181526020018383808284376000920191909152506107e792505050565b9695505050505050565b600060015482106103225760405162461bcd60e51b8152602060048201526011602482015270125b9d985b1a59081b595cdcd859d95259607a1b60448201526064015b60405180910390fd5b6000828152600360209081526040808320546002909252909120546103479190610dc9565b92915050565b600054600160a01b900460ff166103aa576000546001600160a01b031633146103aa5760405162461bcd60e51b815260206004820152600f60248201526e14dd1bdc994e88191a5cd8589b1959608a1b6044820152606401610319565b60006103b584610754565b85856040516020016103c993929190610d46565b60405160208183030381529060405280519060200120905060006104238285858080601f0160208091040260200160405190810160405280939291908181526020018383808284376000920191909152506107e792505050565b90506001600160a01b03811633146104715760405162461bcd60e51b8152602060048201526011602482015270496e76616c6964207369676e617475726560781b6044820152606401610319565b600180546000918261048283610ddc565b919050559050816001600160a01b0316817fc8414cfa3de0825a9a09639d3821f1ccd7daae1a95d8f5500056d1f45459b199898989896040516104c89493929190610e1e565b60405180910390a350505050505050565b6000816001600160a01b03166104f187878787610254565b6001600160a01b0316149695505050505050565b61050d610811565b60008054821515600160a01b0260ff60a01b199091161790556040517fe36f717a2d532c72a150544d60ca38f711a30f9409860e3367d03eca9f12f3539061055a90831515815260200190565b60405180910390a150565b61056d610811565b610577600061083e565b565b60015482106105be5760405162461bcd60e51b8152602060048201526011602482015270125b9d985b1a59081b595cdcd859d95259607a1b6044820152606401610319565b600082815260046020908152604080832033845290915290205460ff16156106185760405162461bcd60e51b815260206004820152600d60248201526c105b1c9958591e481d9bdd1959609a1b6044820152606401610319565b33318061065c5760405162461bcd60e51b815260206004820152601260248201527116995c9bc81d9bdd1a5b99c81dd95a59da1d60721b6044820152606401610319565b60008381526004602090815260408083203384529091529020805460ff1916600117905581156106af57600083815260026020526040812080548392906106a4908490610dc9565b909155506106d39050565b600083815260036020526040812080548392906106cd908490610dc9565b90915550505b604080518281528315156020820152339185917fb7086a9dd618ffa688aa9500720dfe31d3b288daba445664cecceaed4a1562c3910160405180910390a3505050565b61071e610811565b6001600160a01b03811661074857604051631e4fbdf760e01b815260006004820152602401610319565b6107518161083e565b50565b606060006107618361088e565b600101905060008167ffffffffffffffff81111561078157610781610e50565b6040519080825280601f01601f1916602001820160405280156107ab576020820181803683370190505b5090508181016020015b600019016f181899199a1a9b1b9c1cb0b131b232b360811b600a86061a8153600a85049450846107b557509392505050565b6000806000806107f78686610966565b92509250925061080782826109b3565b5090949350505050565b6000546001600160a01b031633146105775760405163118cdaa760e01b8152336004820152602401610319565b600080546001600160a01b038381166001600160a01b0319831681178455604051919092169283917f8be0079c531659141344cd1fd0a4f28419497f9722a3daafe3b4186f6b6457e09190a35050565b60008072184f03e93ff9f4daa797ed6e38ed64bf6a1f0160401b83106108cd5772184f03e93ff9f4daa797ed6e38ed64bf6a1f0160401b830492506040015b6d04ee2d6d415b85acef810000000083106108f9576d04ee2d6d415b85acef8100000000830492506020015b662386f26fc10000831061091757662386f26fc10000830492506010015b6305f5e100831061092f576305f5e100830492506008015b612710831061094357612710830492506004015b60648310610955576064830492506002015b600a83106103475760010192915050565b600080600083516041036109a05760208401516040850151606086015160001a61099288828585610a70565b9550955095505050506109ac565b50508151600091506002905b9250925092565b60008260038111156109c7576109c7610e66565b036109d0575050565b60018260038111156109e4576109e4610e66565b03610a025760405163f645eedf60e01b815260040160405180910390fd5b6002826003811115610a1657610a16610e66565b03610a375760405163fce698f760e01b815260048101829052602401610319565b6003826003811115610a4b57610a4b610e66565b03610a6c576040516335e2f38360e21b815260048101829052602401610319565b5050565b600080807f7fffffffffffffffffffffffffffffff5d576e7357a4501ddfe92f46681b20a0841115610aab5750600091506003905082610b35565b604080516000808252602082018084528a905260ff891692820192909252606081018790526080810186905260019060a0016020604051602081039080840390855afa158015610aff573d6000803e3d6000fd5b5050604051601f1901519150506001600160a01b038116610b2b57506000925060019150829050610b35565b9250600091508190505b9450945094915050565b60008083601f840112610b5157600080fd5b50813567ffffffffffffffff811115610b6957600080fd5b602083019150836020828501011115610b8157600080fd5b9250929050565b60008060008060408587031215610b9e57600080fd5b843567ffffffffffffffff80821115610bb657600080fd5b610bc288838901610b3f565b90965094506020870135915080821115610bdb57600080fd5b50610be887828801610b3f565b95989497509550505050565b600060208284031215610c0657600080fd5b5035919050565b80356001600160a01b0381168114610c2457600080fd5b919050565b60008060408385031215610c3c57600080fd5b82359150610c4c60208401610c0d565b90509250929050565b600080600080600060608688031215610c6d57600080fd5b853567ffffffffffffffff80821115610c8557600080fd5b610c9189838a01610b3f565b90975095506020880135915080821115610caa57600080fd5b50610cb788828901610b3f565b9094509250610cca905060408701610c0d565b90509295509295909350565b80358015158114610c2457600080fd5b600060208284031215610cf857600080fd5b610d0182610cd6565b9392505050565b60008060408385031215610d1b57600080fd5b82359150610c4c60208401610cd6565b600060208284031215610d3d57600080fd5b610d0182610c0d565b7f19457468657265756d205369676e6564204d6573736167653a0a00000000000081526000845160005b81811015610d8d576020818801810151601a868401015201610d70565b508083019050601a810160008152848682375060009301601a0192835250909392505050565b634e487b7160e01b600052601160045260246000fd5b8082018082111561034757610347610db3565b600060018201610dee57610dee610db3565b5060010190565b81835281816020850137506000828201602090810191909152601f909101601f19169091010190565b604081526000610e32604083018688610df5565b8281036020840152610e45818587610df5565b979650505050505050565b634e487b7160e01b600052604160045260246000fd5b634e487b7160e01b600052602160045260246000fdfea2646970667358221220fce7c52d6f76177daea8b775e87e1b138a470dcc073e35a180d99f31761574f664736f6c63430008140033",
  "linkReferences": {},
  "deployedLinkReferences": {}
}